{
  "contractName": "VolcanoToken",
  "abi": [
    {
      "anonymous": false,
      "inputs": [
        {
          "indexed": true,
          "internalType": "address",
          "name": "owner",
          "type": "address"
        },
        {
          "indexed": true,
          "internalType": "address",
          "name": "approved",
          "type": "address"
        },
        {
          "indexed": true,
          "internalType": "uint256",
          "name": "tokenId",
          "type": "uint256"
        }
      ],
      "name": "Approval",
      "type": "event"
    },
    {
      "anonymous": false,
      "inputs": [
        {
          "indexed": true,
          "internalType": "address",
          "name": "owner",
          "type": "address"
        },
        {
          "indexed": true,
          "internalType": "address",
          "name": "operator",
          "type": "address"
        },
        {
          "indexed": false,
          "internalType": "bool",
          "name": "approved",
          "type": "bool"
        }
      ],
      "name": "ApprovalForAll",
      "type": "event"
    },
    {
      "anonymous": false,
      "inputs": [
        {
          "indexed": true,
          "internalType": "address",
          "name": "previousOwner",
          "type": "address"
        },
        {
          "indexed": true,
          "internalType": "address",
          "name": "newOwner",
          "type": "address"
        }
      ],
      "name": "OwnershipTransferred",
      "type": "event"
    },
    {
      "anonymous": false,
      "inputs": [
        {
          "indexed": true,
          "internalType": "address",
          "name": "from",
          "type": "address"
        },
        {
          "indexed": true,
          "internalType": "address",
          "name": "to",
          "type": "address"
        },
        {
          "indexed": true,
          "internalType": "uint256",
          "name": "tokenId",
          "type": "uint256"
        }
      ],
      "name": "Transfer",
      "type": "event"
    },
    {
      "inputs": [
        {
          "internalType": "uint256",
          "name": "",
          "type": "uint256"
        }
      ],
      "name": "IdOwnerhip",
      "outputs": [
        {
          "internalType": "address payable",
          "name": "",
          "type": "address"
        }
      ],
      "stateMutability": "view",
      "type": "function",
      "constant": true
    },
    {
      "inputs": [],
      "name": "_tokenId",
      "outputs": [
        {
          "internalType": "uint256",
          "name": "",
          "type": "uint256"
        }
      ],
      "stateMutability": "view",
      "type": "function",
      "constant": true
    },
    {
      "inputs": [
        {
          "internalType": "address",
          "name": "to",
          "type": "address"
        },
        {
          "internalType": "uint256",
          "name": "tokenId",
          "type": "uint256"
        }
      ],
      "name": "approve",
      "outputs": [],
      "stateMutability": "nonpayable",
      "type": "function"
    },
    {
      "inputs": [
        {
          "internalType": "address",
          "name": "owner",
          "type": "address"
        }
      ],
      "name": "balanceOf",
      "outputs": [
        {
          "internalType": "uint256",
          "name": "",
          "type": "uint256"
        }
      ],
      "stateMutability": "view",
      "type": "function",
      "constant": true
    },
    {
      "inputs": [
        {
          "internalType": "uint256",
          "name": "tokenId",
          "type": "uint256"
        }
      ],
      "name": "getApproved",
      "outputs": [
        {
          "internalType": "address",
          "name": "",
          "type": "address"
        }
      ],
      "stateMutability": "view",
      "type": "function",
      "constant": true
    },
    {
      "inputs": [
        {
          "internalType": "address",
          "name": "owner",
          "type": "address"
        },
        {
          "internalType": "address",
          "name": "operator",
          "type": "address"
        }
      ],
      "name": "isApprovedForAll",
      "outputs": [
        {
          "internalType": "bool",
          "name": "",
          "type": "bool"
        }
      ],
      "stateMutability": "view",
      "type": "function",
      "constant": true
    },
    {
      "inputs": [],
      "name": "name",
      "outputs": [
        {
          "internalType": "string",
          "name": "",
          "type": "string"
        }
      ],
      "stateMutability": "view",
      "type": "function",
      "constant": true
    },
    {
      "inputs": [],
      "name": "owner",
      "outputs": [
        {
          "internalType": "address",
          "name": "",
          "type": "address"
        }
      ],
      "stateMutability": "view",
      "type": "function",
      "constant": true
    },
    {
      "inputs": [
        {
          "internalType": "uint256",
          "name": "tokenId",
          "type": "uint256"
        }
      ],
      "name": "ownerOf",
      "outputs": [
        {
          "internalType": "address",
          "name": "",
          "type": "address"
        }
      ],
      "stateMutability": "view",
      "type": "function",
      "constant": true
    },
    {
      "inputs": [
        {
          "internalType": "address",
          "name": "",
          "type": "address"
        },
        {
          "internalType": "uint256",
          "name": "",
          "type": "uint256"
        }
      ],
      "name": "ownershipLog",
      "outputs": [
        {
          "internalType": "uint256",
          "name": "_timestamp",
          "type": "uint256"
        },
        {
          "internalType": "uint256",
          "name": "_id",
          "type": "uint256"
        },
        {
          "internalType": "string",
          "name": "_URI",
          "type": "string"
        },
        {
          "internalType": "uint256",
          "name": "price",
          "type": "uint256"
        }
      ],
      "stateMutability": "view",
      "type": "function",
      "constant": true
    },
    {
      "inputs": [],
      "name": "renounceOwnership",
      "outputs": [],
      "stateMutability": "nonpayable",
      "type": "function"
    },
    {
      "inputs": [
        {
          "internalType": "address",
          "name": "from",
          "type": "address"
        },
        {
          "internalType": "address",
          "name": "to",
          "type": "address"
        },
        {
          "internalType": "uint256",
          "name": "tokenId",
          "type": "uint256"
        }
      ],
      "name": "safeTransferFrom",
      "outputs": [],
      "stateMutability": "nonpayable",
      "type": "function"
    },
    {
      "inputs": [
        {
          "internalType": "address",
          "name": "from",
          "type": "address"
        },
        {
          "internalType": "address",
          "name": "to",
          "type": "address"
        },
        {
          "internalType": "uint256",
          "name": "tokenId",
          "type": "uint256"
        },
        {
          "internalType": "bytes",
          "name": "_data",
          "type": "bytes"
        }
      ],
      "name": "safeTransferFrom",
      "outputs": [],
      "stateMutability": "nonpayable",
      "type": "function"
    },
    {
      "inputs": [
        {
          "internalType": "address",
          "name": "operator",
          "type": "address"
        },
        {
          "internalType": "bool",
          "name": "approved",
          "type": "bool"
        }
      ],
      "name": "setApprovalForAll",
      "outputs": [],
      "stateMutability": "nonpayable",
      "type": "function"
    },
    {
      "inputs": [
        {
          "internalType": "bytes4",
          "name": "interfaceId",
          "type": "bytes4"
        }
      ],
      "name": "supportsInterface",
      "outputs": [
        {
          "internalType": "bool",
          "name": "",
          "type": "bool"
        }
      ],
      "stateMutability": "view",
      "type": "function",
      "constant": true
    },
    {
      "inputs": [],
      "name": "symbol",
      "outputs": [
        {
          "internalType": "string",
          "name": "",
          "type": "string"
        }
      ],
      "stateMutability": "view",
      "type": "function",
      "constant": true
    },
    {
      "inputs": [
        {
          "internalType": "uint256",
          "name": "tokenId",
          "type": "uint256"
        }
      ],
      "name": "tokenURI",
      "outputs": [
        {
          "internalType": "string",
          "name": "",
          "type": "string"
        }
      ],
      "stateMutability": "view",
      "type": "function",
      "constant": true
    },
    {
      "inputs": [
        {
          "internalType": "address",
          "name": "from",
          "type": "address"
        },
        {
          "internalType": "address",
          "name": "to",
          "type": "address"
        },
        {
          "internalType": "uint256",
          "name": "tokenId",
          "type": "uint256"
        }
      ],
      "name": "transferFrom",
      "outputs": [],
      "stateMutability": "nonpayable",
      "type": "function"
    },
    {
      "inputs": [
        {
          "internalType": "address",
          "name": "newOwner",
          "type": "address"
        }
      ],
      "name": "transferOwnership",
      "outputs": [],
      "stateMutability": "nonpayable",
      "type": "function"
    },
    {
      "inputs": [
        {
          "internalType": "uint256",
          "name": "_id",
          "type": "uint256"
        },
        {
          "internalType": "address payable",
          "name": "_to",
          "type": "address"
        },
        {
          "internalType": "address payable",
          "name": "_from",
          "type": "address"
        }
      ],
      "name": "purchaseToken",
      "outputs": [],
      "stateMutability": "payable",
      "type": "function",
      "payable": true
    },
    {
      "inputs": [
        {
          "internalType": "address payable",
          "name": "to",
          "type": "address"
        },
        {
          "internalType": "string",
          "name": "_uri",
          "type": "string"
        },
        {
          "internalType": "uint256",
          "name": "_price",
          "type": "uint256"
        }
      ],
      "name": "mintToken",
      "outputs": [],
      "stateMutability": "nonpayable",
      "type": "function"
    },
    {
      "inputs": [
        {
          "internalType": "uint256",
          "name": "tokenId",
          "type": "uint256"
        }
      ],
      "name": "removeId",
      "outputs": [],
      "stateMutability": "nonpayable",
      "type": "function"
    }
  ],
  "bytecode": "0x60806040523480156200001157600080fd5b506040518060400160405280600a81526020017f5975727920546f6b656e000000000000000000000000000000000000000000008152506040518060400160405280600381526020017f59544b0000000000000000000000000000000000000000000000000000000000815250816000908051906020019062000096929190620001a6565b508060019080519060200190620000af929190620001a6565b505050620000d2620000c6620000d860201b60201c565b620000e060201b60201c565b620002bb565b600033905090565b6000600660009054906101000a900473ffffffffffffffffffffffffffffffffffffffff16905081600660006101000a81548173ffffffffffffffffffffffffffffffffffffffff021916908373ffffffffffffffffffffffffffffffffffffffff1602179055508173ffffffffffffffffffffffffffffffffffffffff168173ffffffffffffffffffffffffffffffffffffffff167f8be0079c531659141344cd1fd0a4f28419497f9722a3daafe3b4186f6b6457e060405160405180910390a35050565b828054620001b49062000256565b90600052602060002090601f016020900481019282620001d8576000855562000224565b82601f10620001f357805160ff191683800117855562000224565b8280016001018555821562000224579182015b828111156200022357825182559160200191906001019062000206565b5b50905062000233919062000237565b5090565b5b808211156200025257600081600090555060010162000238565b5090565b600060028204905060018216806200026f57607f821691505b602082108114156200028657620002856200028c565b5b50919050565b7f4e487b7100000000000000000000000000000000000000000000000000000000600052602260045260246000fd5b613bcf80620002cb6000396000f3fe6080604052600436106101355760003560e01c806370a08231116100ab578063b88d4fde1161006f578063b88d4fde14610427578063c87b56dd14610450578063d25d822f1461048d578063e985e9c5146104a9578063f2fde38b146104e6578063fe00e3591461050f57610135565b806370a0823114610354578063715018a6146103915780638da5cb5b146103a857806395d89b41146103d3578063a22cb465146103fe57610135565b806324822514116100fd578063248225141461023157806342842e0e1461025c5780634e27e71514610285578063611b2fed146102c55780636352211e146102ee578063709df9a31461032b57610135565b806301ffc9a71461013a57806306fdde0314610177578063081812fc146101a2578063095ea7b3146101df57806323b872dd14610208575b600080fd5b34801561014657600080fd5b50610161600480360381019061015c9190612bd1565b61054c565b60405161016e9190613497565b60405180910390f35b34801561018357600080fd5b5061018c61062e565b60405161019991906134b2565b60405180910390f35b3480156101ae57600080fd5b506101c960048036038101906101c49190612c23565b6106c0565b6040516101d69190613415565b60405180910390f35b3480156101eb57600080fd5b5061020660048036038101906102019190612b95565b610745565b005b34801561021457600080fd5b5061022f600480360381019061022a9190612a8f565b61085d565b005b34801561023d57600080fd5b506102466108bd565b6040516102539190613714565b60405180910390f35b34801561026857600080fd5b50610283600480360381019061027e9190612a8f565b6108c3565b005b34801561029157600080fd5b506102ac60048036038101906102a79190612b95565b6108e3565b6040516102bc949392919061372f565b60405180910390f35b3480156102d157600080fd5b506102ec60048036038101906102e791906129e7565b6109b8565b005b3480156102fa57600080fd5b5061031560048036038101906103109190612c23565b610b98565b6040516103229190613415565b60405180910390f35b34801561033757600080fd5b50610352600480360381019061034d9190612c23565b610c4a565b005b34801561036057600080fd5b5061037b600480360381019061037691906129be565b610eb7565b6040516103889190613714565b60405180910390f35b34801561039d57600080fd5b506103a6610f6f565b005b3480156103b457600080fd5b506103bd610ff7565b6040516103ca9190613415565b60405180910390f35b3480156103df57600080fd5b506103e8611021565b6040516103f591906134b2565b60405180910390f35b34801561040a57600080fd5b5061042560048036038101906104209190612b59565b6110b3565b005b34801561043357600080fd5b5061044e60048036038101906104499190612ade565b611234565b005b34801561045c57600080fd5b5061047760048036038101906104729190612c23565b611296565b60405161048491906134b2565b60405180910390f35b6104a760048036038101906104a29190612c4c565b61133d565b005b3480156104b557600080fd5b506104d060048036038101906104cb9190612a53565b6119b2565b6040516104dd9190613497565b60405180910390f35b3480156104f257600080fd5b5061050d600480360381019061050891906129be565b611a46565b005b34801561051b57600080fd5b5061053660048036038101906105319190612c23565b611b3e565b6040516105439190613430565b60405180910390f35b60007f80ac58cd000000000000000000000000000000000000000000000000000000007bffffffffffffffffffffffffffffffffffffffffffffffffffffffff1916827bffffffffffffffffffffffffffffffffffffffffffffffffffffffff1916148061061757507f5b5e139f000000000000000000000000000000000000000000000000000000007bffffffffffffffffffffffffffffffffffffffffffffffffffffffff1916827bffffffffffffffffffffffffffffffffffffffffffffffffffffffff1916145b80610627575061062682611b71565b5b9050919050565b60606000805461063d906139ad565b80601f0160208091040260200160405190810160405280929190818152602001828054610669906139ad565b80156106b65780601f1061068b576101008083540402835291602001916106b6565b820191906000526020600020905b81548152906001019060200180831161069957829003601f168201915b5050505050905090565b60006106cb82611bdb565b61070a576040517f08c379a000000000000000000000000000000000000000000000000000000000815260040161070190613654565b60405180910390fd5b6004600083815260200190815260200160002060009054906101000a900473ffffffffffffffffffffffffffffffffffffffff169050919050565b600061075082610b98565b90508073ffffffffffffffffffffffffffffffffffffffff168373ffffffffffffffffffffffffffffffffffffffff1614156107c1576040517f08c379a00000000000000000000000000000000000000000000000000000000081526004016107b8906136d4565b60405180910390fd5b8073ffffffffffffffffffffffffffffffffffffffff166107e0611c47565b73ffffffffffffffffffffffffffffffffffffffff16148061080f575061080e81610809611c47565b6119b2565b5b61084e576040517f08c379a000000000000000000000000000000000000000000000000000000000815260040161084590613594565b60405180910390fd5b6108588383611c4f565b505050565b61086e610868611c47565b82611d08565b6108ad576040517f08c379a00000000000000000000000000000000000000000000000000000000081526004016108a4906136f4565b60405180910390fd5b6108b8838383611de6565b505050565b60075481565b6108de83838360405180602001604052806000815250611234565b505050565b600860205281600052604060002081815481106108ff57600080fd5b90600052602060002090600402016000915091505080600001549080600101549080600201805461092f906139ad565b80601f016020809104026020016040519081016040528092919081815260200182805461095b906139ad565b80156109a85780601f1061097d576101008083540402835291602001916109a8565b820191906000526020600020905b81548152906001019060200180831161098b57829003601f168201915b5050505050908060030154905084565b6109c484600754612042565b8360096000600754815260200190815260200160002060006101000a81548173ffffffffffffffffffffffffffffffffffffffff021916908373ffffffffffffffffffffffffffffffffffffffff160217905550600860008573ffffffffffffffffffffffffffffffffffffffff1673ffffffffffffffffffffffffffffffffffffffff1681526020019081526020016000206040518060800160405280428152602001600754815260200185858080601f016020809104026020016040519081016040528093929190818152602001838380828437600081840152601f19601f82011690508083019250505050505050815260200183815250908060018154018082558091505060019003906000526020600020906004020160009091909190915060008201518160000155602082015181600101556040820151816002019080519060200190610b1792919061271e565b506060820151816003015550508360096000600754815260200190815260200160002060006101000a81548173ffffffffffffffffffffffffffffffffffffffff021916908373ffffffffffffffffffffffffffffffffffffffff160217905550600160076000828254610b8b919061382a565b9250508190555050505050565b6000806002600084815260200190815260200160002060009054906101000a900473ffffffffffffffffffffffffffffffffffffffff169050600073ffffffffffffffffffffffffffffffffffffffff168173ffffffffffffffffffffffffffffffffffffffff161415610c41576040517f08c379a0000000000000000000000000000000000000000000000000000000008152600401610c38906135d4565b60405180910390fd5b80915050919050565b60005b600860003373ffffffffffffffffffffffffffffffffffffffff1673ffffffffffffffffffffffffffffffffffffffff16815260200190815260200160002080549050811015610eb35781600860003373ffffffffffffffffffffffffffffffffffffffff1673ffffffffffffffffffffffffffffffffffffffff1681526020019081526020016000208281548110610d0f577f4e487b7100000000000000000000000000000000000000000000000000000000600052603260045260246000fd5b9060005260206000209060040201600101541415610e6a576000600860003373ffffffffffffffffffffffffffffffffffffffff1673ffffffffffffffffffffffffffffffffffffffff1681526020019081526020016000208281548110610da0577f4e487b7100000000000000000000000000000000000000000000000000000000600052603260045260246000fd5b906000526020600020906004020160010181905550600860003373ffffffffffffffffffffffffffffffffffffffff1673ffffffffffffffffffffffffffffffffffffffff1681526020019081526020016000208181548110610e2c577f4e487b7100000000000000000000000000000000000000000000000000000000600052603260045260246000fd5b90600052602060002090600402016000808201600090556001820160009055600282016000610e5b91906127a4565b60038201600090555050610eb3565b6009600083815260200190815260200160002060006101000a81549073ffffffffffffffffffffffffffffffffffffffff02191690558080610eab906139df565b915050610c4d565b5050565b60008073ffffffffffffffffffffffffffffffffffffffff168273ffffffffffffffffffffffffffffffffffffffff161415610f28576040517f08c379a0000000000000000000000000000000000000000000000000000000008152600401610f1f906135b4565b60405180910390fd5b600360008373ffffffffffffffffffffffffffffffffffffffff1673ffffffffffffffffffffffffffffffffffffffff168152602001908152602001600020549050919050565b610f77611c47565b73ffffffffffffffffffffffffffffffffffffffff16610f95610ff7565b73ffffffffffffffffffffffffffffffffffffffff1614610feb576040517f08c379a0000000000000000000000000000000000000000000000000000000008152600401610fe290613674565b60405180910390fd5b610ff56000612060565b565b6000600660009054906101000a900473ffffffffffffffffffffffffffffffffffffffff16905090565b606060018054611030906139ad565b80601f016020809104026020016040519081016040528092919081815260200182805461105c906139ad565b80156110a95780601f1061107e576101008083540402835291602001916110a9565b820191906000526020600020905b81548152906001019060200180831161108c57829003601f168201915b5050505050905090565b6110bb611c47565b73ffffffffffffffffffffffffffffffffffffffff168273ffffffffffffffffffffffffffffffffffffffff161415611129576040517f08c379a000000000000000000000000000000000000000000000000000000000815260040161112090613554565b60405180910390fd5b8060056000611136611c47565b73ffffffffffffffffffffffffffffffffffffffff1673ffffffffffffffffffffffffffffffffffffffff16815260200190815260200160002060008473ffffffffffffffffffffffffffffffffffffffff1673ffffffffffffffffffffffffffffffffffffffff16815260200190815260200160002060006101000a81548160ff0219169083151502179055508173ffffffffffffffffffffffffffffffffffffffff166111e3611c47565b73ffffffffffffffffffffffffffffffffffffffff167f17307eab39ab6107e8899845ad3d59bd9653f200f220920489ca2b5937696c31836040516112289190613497565b60405180910390a35050565b61124561123f611c47565b83611d08565b611284576040517f08c379a000000000000000000000000000000000000000000000000000000000815260040161127b906136f4565b60405180910390fd5b61129084848484612126565b50505050565b60606112a182611bdb565b6112e0576040517f08c379a00000000000000000000000000000000000000000000000000000000081526004016112d7906136b4565b60405180910390fd5b60006112ea612182565b9050600081511161130a5760405180602001604052806000815250611335565b8061131484612199565b6040516020016113259291906133dc565b6040516020818303038152906040525b915050919050565b600073ffffffffffffffffffffffffffffffffffffffff163373ffffffffffffffffffffffffffffffffffffffff16141580156113a657503073ffffffffffffffffffffffffffffffffffffffff163373ffffffffffffffffffffffffffffffffffffffff1614155b6113af57600080fd5b6009600084815260200190815260200160002060009054906101000a900473ffffffffffffffffffffffffffffffffffffffff1673ffffffffffffffffffffffffffffffffffffffff168273ffffffffffffffffffffffffffffffffffffffff1614611450576040517f08c379a000000000000000000000000000000000000000000000000000000000815260040161144790613634565b60405180910390fd5b60005b600860006009600087815260200190815260200160002060009054906101000a900473ffffffffffffffffffffffffffffffffffffffff1673ffffffffffffffffffffffffffffffffffffffff1673ffffffffffffffffffffffffffffffffffffffff1681526020019081526020016000208054905081116119ac5783600860006009600088815260200190815260200160002060009054906101000a900473ffffffffffffffffffffffffffffffffffffffff1673ffffffffffffffffffffffffffffffffffffffff1673ffffffffffffffffffffffffffffffffffffffff168152602001908152602001600020828154811061157a577f4e487b7100000000000000000000000000000000000000000000000000000000600052603260045260246000fd5b9060005260206000209060040201600101541415611999576000600860006009600088815260200190815260200160002060009054906101000a900473ffffffffffffffffffffffffffffffffffffffff1673ffffffffffffffffffffffffffffffffffffffff1673ffffffffffffffffffffffffffffffffffffffff168152602001908152602001600020828154811061163e577f4e487b7100000000000000000000000000000000000000000000000000000000600052603260045260246000fd5b906000526020600020906004020160030154905080341015611695576040517f08c379a000000000000000000000000000000000000000000000000000000000815260040161168c906135f4565b60405180910390fd5b8373ffffffffffffffffffffffffffffffffffffffff16346040516116b990613400565b60006040518083038185875af1925050503d80600081146116f6576040519150601f19603f3d011682016040523d82523d6000602084013e6116fb565b606091505b505050600860008473ffffffffffffffffffffffffffffffffffffffff1673ffffffffffffffffffffffffffffffffffffffff168152602001908152602001600020600860006009600089815260200190815260200160002060009054906101000a900473ffffffffffffffffffffffffffffffffffffffff1673ffffffffffffffffffffffffffffffffffffffff1673ffffffffffffffffffffffffffffffffffffffff16815260200190815260200160002083815481106117e7577f4e487b7100000000000000000000000000000000000000000000000000000000600052603260045260246000fd5b9060005260206000209060040201908060018154018082558091505060019003906000526020600020906004020160009091909190915060008201548160000155600182015481600101556002820181600201908054611846906139ad565b6118519291906127e4565b50600382015481600301555050600860006009600088815260200190815260200160002060009054906101000a900473ffffffffffffffffffffffffffffffffffffffff1673ffffffffffffffffffffffffffffffffffffffff1673ffffffffffffffffffffffffffffffffffffffff1681526020019081526020016000208281548110611908577f4e487b7100000000000000000000000000000000000000000000000000000000600052603260045260246000fd5b9060005260206000209060040201600080820160009055600182016000905560028201600061193791906127a4565b60038201600090555050826009600087815260200190815260200160002060006101000a81548173ffffffffffffffffffffffffffffffffffffffff021916908373ffffffffffffffffffffffffffffffffffffffff160217905550506119ac565b80806119a4906139df565b915050611453565b50505050565b6000600560008473ffffffffffffffffffffffffffffffffffffffff1673ffffffffffffffffffffffffffffffffffffffff16815260200190815260200160002060008373ffffffffffffffffffffffffffffffffffffffff1673ffffffffffffffffffffffffffffffffffffffff16815260200190815260200160002060009054906101000a900460ff16905092915050565b611a4e611c47565b73ffffffffffffffffffffffffffffffffffffffff16611a6c610ff7565b73ffffffffffffffffffffffffffffffffffffffff1614611ac2576040517f08c379a0000000000000000000000000000000000000000000000000000000008152600401611ab990613674565b60405180910390fd5b600073ffffffffffffffffffffffffffffffffffffffff168173ffffffffffffffffffffffffffffffffffffffff161415611b32576040517f08c379a0000000000000000000000000000000000000000000000000000000008152600401611b29906134f4565b60405180910390fd5b611b3b81612060565b50565b60096020528060005260406000206000915054906101000a900473ffffffffffffffffffffffffffffffffffffffff1681565b60007f01ffc9a7000000000000000000000000000000000000000000000000000000007bffffffffffffffffffffffffffffffffffffffffffffffffffffffff1916827bffffffffffffffffffffffffffffffffffffffffffffffffffffffff1916149050919050565b60008073ffffffffffffffffffffffffffffffffffffffff166002600084815260200190815260200160002060009054906101000a900473ffffffffffffffffffffffffffffffffffffffff1673ffffffffffffffffffffffffffffffffffffffff1614159050919050565b600033905090565b816004600083815260200190815260200160002060006101000a81548173ffffffffffffffffffffffffffffffffffffffff021916908373ffffffffffffffffffffffffffffffffffffffff160217905550808273ffffffffffffffffffffffffffffffffffffffff16611cc283610b98565b73ffffffffffffffffffffffffffffffffffffffff167f8c5be1e5ebec7d5bd14f71427d1e84f3dd0314c0f7b2291e5b200ac8c7c3b92560405160405180910390a45050565b6000611d1382611bdb565b611d52576040517f08c379a0000000000000000000000000000000000000000000000000000000008152600401611d4990613574565b60405180910390fd5b6000611d5d83610b98565b90508073ffffffffffffffffffffffffffffffffffffffff168473ffffffffffffffffffffffffffffffffffffffff161480611dcc57508373ffffffffffffffffffffffffffffffffffffffff16611db4846106c0565b73ffffffffffffffffffffffffffffffffffffffff16145b80611ddd5750611ddc81856119b2565b5b91505092915050565b8273ffffffffffffffffffffffffffffffffffffffff16611e0682610b98565b73ffffffffffffffffffffffffffffffffffffffff1614611e5c576040517f08c379a0000000000000000000000000000000000000000000000000000000008152600401611e5390613694565b60405180910390fd5b600073ffffffffffffffffffffffffffffffffffffffff168273ffffffffffffffffffffffffffffffffffffffff161415611ecc576040517f08c379a0000000000000000000000000000000000000000000000000000000008152600401611ec390613534565b60405180910390fd5b611ed7838383612346565b611ee2600082611c4f565b6001600360008573ffffffffffffffffffffffffffffffffffffffff1673ffffffffffffffffffffffffffffffffffffffff1681526020019081526020016000206000828254611f3291906138b1565b925050819055506001600360008473ffffffffffffffffffffffffffffffffffffffff1673ffffffffffffffffffffffffffffffffffffffff1681526020019081526020016000206000828254611f89919061382a565b92505081905550816002600083815260200190815260200160002060006101000a81548173ffffffffffffffffffffffffffffffffffffffff021916908373ffffffffffffffffffffffffffffffffffffffff160217905550808273ffffffffffffffffffffffffffffffffffffffff168473ffffffffffffffffffffffffffffffffffffffff167fddf252ad1be2c89b69c2b068fc378daa952ba7f163c4a11628f55a4df523b3ef60405160405180910390a4505050565b61205c82826040518060200160405280600081525061234b565b5050565b6000600660009054906101000a900473ffffffffffffffffffffffffffffffffffffffff16905081600660006101000a81548173ffffffffffffffffffffffffffffffffffffffff021916908373ffffffffffffffffffffffffffffffffffffffff1602179055508173ffffffffffffffffffffffffffffffffffffffff168173ffffffffffffffffffffffffffffffffffffffff167f8be0079c531659141344cd1fd0a4f28419497f9722a3daafe3b4186f6b6457e060405160405180910390a35050565b612131848484611de6565b61213d848484846123a6565b61217c576040517f08c379a0000000000000000000000000000000000000000000000000000000008152600401612173906134d4565b60405180910390fd5b50505050565b606060405180602001604052806000815250905090565b606060008214156121e1576040518060400160405280600181526020017f30000000000000000000000000000000000000000000000000000000000000008152509050612341565b600082905060005b600082146122135780806121fc906139df565b915050600a8261220c9190613880565b91506121e9565b60008167ffffffffffffffff811115612255577f4e487b7100000000000000000000000000000000000000000000000000000000600052604160045260246000fd5b6040519080825280601f01601f1916602001820160405280156122875781602001600182028036833780820191505090505b5090505b6000851461233a576001826122a091906138b1565b9150600a856122af9190613a28565b60306122bb919061382a565b60f81b8183815181106122f7577f4e487b7100000000000000000000000000000000000000000000000000000000600052603260045260246000fd5b60200101907effffffffffffffffffffffffffffffffffffffffffffffffffffffffffffff1916908160001a905350600a856123339190613880565b945061228b565b8093505050505b919050565b505050565b612355838361253d565b61236260008484846123a6565b6123a1576040517f08c379a0000000000000000000000000000000000000000000000000000000008152600401612398906134d4565b60405180910390fd5b505050565b60006123c78473ffffffffffffffffffffffffffffffffffffffff1661270b565b15612530578373ffffffffffffffffffffffffffffffffffffffff1663150b7a026123f0611c47565b8786866040518563ffffffff1660e01b8152600401612412949392919061344b565b602060405180830381600087803b15801561242c57600080fd5b505af192505050801561245d57506040513d601f19601f8201168201806040525081019061245a9190612bfa565b60015b6124e0573d806000811461248d576040519150601f19603f3d011682016040523d82523d6000602084013e612492565b606091505b506000815114156124d8576040517f08c379a00000000000000000000000000000000000000000000000000000000081526004016124cf906134d4565b60405180910390fd5b805181602001fd5b63150b7a0260e01b7bffffffffffffffffffffffffffffffffffffffffffffffffffffffff1916817bffffffffffffffffffffffffffffffffffffffffffffffffffffffff191614915050612535565b600190505b949350505050565b600073ffffffffffffffffffffffffffffffffffffffff168273ffffffffffffffffffffffffffffffffffffffff1614156125ad576040517f08c379a00000000000000000000000000000000000000000000000000000000081526004016125a490613614565b60405180910390fd5b6125b681611bdb565b156125f6576040517f08c379a00000000000000000000000000000000000000000000000000000000081526004016125ed90613514565b60405180910390fd5b61260260008383612346565b6001600360008473ffffffffffffffffffffffffffffffffffffffff1673ffffffffffffffffffffffffffffffffffffffff1681526020019081526020016000206000828254612652919061382a565b92505081905550816002600083815260200190815260200160002060006101000a81548173ffffffffffffffffffffffffffffffffffffffff021916908373ffffffffffffffffffffffffffffffffffffffff160217905550808273ffffffffffffffffffffffffffffffffffffffff16600073ffffffffffffffffffffffffffffffffffffffff167fddf252ad1be2c89b69c2b068fc378daa952ba7f163c4a11628f55a4df523b3ef60405160405180910390a45050565b600080823b905060008111915050919050565b82805461272a906139ad565b90600052602060002090601f01602090048101928261274c5760008555612793565b82601f1061276557805160ff1916838001178555612793565b82800160010185558215612793579182015b82811115612792578251825591602001919060010190612777565b5b5090506127a09190612871565b5090565b5080546127b0906139ad565b6000825580601f106127c257506127e1565b601f0160209004906000526020600020908101906127e09190612871565b5b50565b8280546127f0906139ad565b90600052602060002090601f0160209004810192826128125760008555612860565b82601f106128235780548555612860565b8280016001018555821561286057600052602060002091601f016020900482015b8281111561285f578254825591600101919060010190612844565b5b50905061286d9190612871565b5090565b5b8082111561288a576000816000905550600101612872565b5090565b60006128a161289c846137ac565b61377b565b9050828152602081018484840111156128b957600080fd5b6128c484828561396b565b509392505050565b6000813590506128db81613b26565b92915050565b6000813590506128f081613b3d565b92915050565b60008135905061290581613b54565b92915050565b60008135905061291a81613b6b565b92915050565b60008151905061292f81613b6b565b92915050565b600082601f83011261294657600080fd5b813561295684826020860161288e565b91505092915050565b60008083601f84011261297157600080fd5b8235905067ffffffffffffffff81111561298a57600080fd5b6020830191508360018202830111156129a257600080fd5b9250929050565b6000813590506129b881613b82565b92915050565b6000602082840312156129d057600080fd5b60006129de848285016128cc565b91505092915050565b600080600080606085870312156129fd57600080fd5b6000612a0b878288016128e1565b945050602085013567ffffffffffffffff811115612a2857600080fd5b612a348782880161295f565b93509350506040612a47878288016129a9565b91505092959194509250565b60008060408385031215612a6657600080fd5b6000612a74858286016128cc565b9250506020612a85858286016128cc565b9150509250929050565b600080600060608486031215612aa457600080fd5b6000612ab2868287016128cc565b9350506020612ac3868287016128cc565b9250506040612ad4868287016129a9565b9150509250925092565b60008060008060808587031215612af457600080fd5b6000612b02878288016128cc565b9450506020612b13878288016128cc565b9350506040612b24878288016129a9565b925050606085013567ffffffffffffffff811115612b4157600080fd5b612b4d87828801612935565b91505092959194509250565b60008060408385031215612b6c57600080fd5b6000612b7a858286016128cc565b9250506020612b8b858286016128f6565b9150509250929050565b60008060408385031215612ba857600080fd5b6000612bb6858286016128cc565b9250506020612bc7858286016129a9565b9150509250929050565b600060208284031215612be357600080fd5b6000612bf18482850161290b565b91505092915050565b600060208284031215612c0c57600080fd5b6000612c1a84828501612920565b91505092915050565b600060208284031215612c3557600080fd5b6000612c43848285016129a9565b91505092915050565b600080600060608486031215612c6157600080fd5b6000612c6f868287016129a9565b9350506020612c80868287016128e1565b9250506040612c91868287016128e1565b9150509250925092565b612ca4816138f7565b82525050565b612cb3816138e5565b82525050565b612cc281613909565b82525050565b6000612cd3826137dc565b612cdd81856137f2565b9350612ced81856020860161397a565b612cf681613b15565b840191505092915050565b6000612d0c826137e7565b612d16818561380e565b9350612d2681856020860161397a565b612d2f81613b15565b840191505092915050565b6000612d45826137e7565b612d4f818561381f565b9350612d5f81856020860161397a565b80840191505092915050565b6000612d7860328361380e565b91507f4552433732313a207472616e7366657220746f206e6f6e20455243373231526560008301527f63656976657220696d706c656d656e74657200000000000000000000000000006020830152604082019050919050565b6000612dde60268361380e565b91507f4f776e61626c653a206e6577206f776e657220697320746865207a65726f206160008301527f64647265737300000000000000000000000000000000000000000000000000006020830152604082019050919050565b6000612e44601c8361380e565b91507f4552433732313a20746f6b656e20616c7265616479206d696e746564000000006000830152602082019050919050565b6000612e8460248361380e565b91507f4552433732313a207472616e7366657220746f20746865207a65726f2061646460008301527f72657373000000000000000000000000000000000000000000000000000000006020830152604082019050919050565b6000612eea60198361380e565b91507f4552433732313a20617070726f766520746f2063616c6c6572000000000000006000830152602082019050919050565b6000612f2a602c8361380e565b91507f4552433732313a206f70657261746f7220717565727920666f72206e6f6e657860008301527f697374656e7420746f6b656e00000000000000000000000000000000000000006020830152604082019050919050565b6000612f9060388361380e565b91507f4552433732313a20617070726f76652063616c6c6572206973206e6f74206f7760008301527f6e6572206e6f7220617070726f76656420666f7220616c6c00000000000000006020830152604082019050919050565b6000612ff6602a8361380e565b91507f4552433732313a2062616c616e636520717565727920666f7220746865207a6560008301527f726f2061646472657373000000000000000000000000000000000000000000006020830152604082019050919050565b600061305c60298361380e565b91507f4552433732313a206f776e657220717565727920666f72206e6f6e657869737460008301527f656e7420746f6b656e00000000000000000000000000000000000000000000006020830152604082019050919050565b60006130c2601d8361380e565b91507f696e73756666696369656e74207061796d656e742070726f76696465640000006000830152602082019050919050565b600061310260208361380e565b91507f4552433732313a206d696e7420746f20746865207a65726f20616464726573736000830152602082019050919050565b6000613142601f8361380e565b91507f796f7520617265206e6f7420706179696e6720746f20746865206f776e6572006000830152602082019050919050565b6000613182602c8361380e565b91507f4552433732313a20617070726f76656420717565727920666f72206e6f6e657860008301527f697374656e7420746f6b656e00000000000000000000000000000000000000006020830152604082019050919050565b60006131e860208361380e565b91507f4f776e61626c653a2063616c6c6572206973206e6f7420746865206f776e65726000830152602082019050919050565b600061322860298361380e565b91507f4552433732313a207472616e73666572206f6620746f6b656e2074686174206960008301527f73206e6f74206f776e00000000000000000000000000000000000000000000006020830152604082019050919050565b600061328e602f8361380e565b91507f4552433732314d657461646174613a2055524920717565727920666f72206e6f60008301527f6e6578697374656e7420746f6b656e00000000000000000000000000000000006020830152604082019050919050565b60006132f460218361380e565b91507f4552433732313a20617070726f76616c20746f2063757272656e74206f776e6560008301527f72000000000000000000000000000000000000000000000000000000000000006020830152604082019050919050565b600061335a600083613803565b9150600082019050919050565b600061337460318361380e565b91507f4552433732313a207472616e736665722063616c6c6572206973206e6f74206f60008301527f776e6572206e6f7220617070726f7665640000000000000000000000000000006020830152604082019050919050565b6133d681613961565b82525050565b60006133e88285612d3a565b91506133f48284612d3a565b91508190509392505050565b600061340b8261334d565b9150819050919050565b600060208201905061342a6000830184612caa565b92915050565b60006020820190506134456000830184612c9b565b92915050565b60006080820190506134606000830187612caa565b61346d6020830186612caa565b61347a60408301856133cd565b818103606083015261348c8184612cc8565b905095945050505050565b60006020820190506134ac6000830184612cb9565b92915050565b600060208201905081810360008301526134cc8184612d01565b905092915050565b600060208201905081810360008301526134ed81612d6b565b9050919050565b6000602082019050818103600083015261350d81612dd1565b9050919050565b6000602082019050818103600083015261352d81612e37565b9050919050565b6000602082019050818103600083015261354d81612e77565b9050919050565b6000602082019050818103600083015261356d81612edd565b9050919050565b6000602082019050818103600083015261358d81612f1d565b9050919050565b600060208201905081810360008301526135ad81612f83565b9050919050565b600060208201905081810360008301526135cd81612fe9565b9050919050565b600060208201905081810360008301526135ed8161304f565b9050919050565b6000602082019050818103600083015261360d816130b5565b9050919050565b6000602082019050818103600083015261362d816130f5565b9050919050565b6000602082019050818103600083015261364d81613135565b9050919050565b6000602082019050818103600083015261366d81613175565b9050919050565b6000602082019050818103600083015261368d816131db565b9050919050565b600060208201905081810360008301526136ad8161321b565b9050919050565b600060208201905081810360008301526136cd81613281565b9050919050565b600060208201905081810360008301526136ed816132e7565b9050919050565b6000602082019050818103600083015261370d81613367565b9050919050565b600060208201905061372960008301846133cd565b92915050565b600060808201905061374460008301876133cd565b61375160208301866133cd565b81810360408301526137638185612d01565b905061377260608301846133cd565b95945050505050565b6000604051905081810181811067ffffffffffffffff821117156137a2576137a1613ae6565b5b8060405250919050565b600067ffffffffffffffff8211156137c7576137c6613ae6565b5b601f19601f8301169050602081019050919050565b600081519050919050565b600081519050919050565b600082825260208201905092915050565b600081905092915050565b600082825260208201905092915050565b600081905092915050565b600061383582613961565b915061384083613961565b9250827fffffffffffffffffffffffffffffffffffffffffffffffffffffffffffffffff0382111561387557613874613a59565b5b828201905092915050565b600061388b82613961565b915061389683613961565b9250826138a6576138a5613a88565b5b828204905092915050565b60006138bc82613961565b91506138c783613961565b9250828210156138da576138d9613a59565b5b828203905092915050565b60006138f082613941565b9050919050565b600061390282613941565b9050919050565b60008115159050919050565b60007fffffffff0000000000000000000000000000000000000000000000000000000082169050919050565b600073ffffffffffffffffffffffffffffffffffffffff82169050919050565b6000819050919050565b82818337600083830152505050565b60005b8381101561399857808201518184015260208101905061397d565b838111156139a7576000848401525b50505050565b600060028204905060018216806139c557607f821691505b602082108114156139d9576139d8613ab7565b5b50919050565b60006139ea82613961565b91507fffffffffffffffffffffffffffffffffffffffffffffffffffffffffffffffff821415613a1d57613a1c613a59565b5b600182019050919050565b6000613a3382613961565b9150613a3e83613961565b925082613a4e57613a4d613a88565b5b828206905092915050565b7f4e487b7100000000000000000000000000000000000000000000000000000000600052601160045260246000fd5b7f4e487b7100000000000000000000000000000000000000000000000000000000600052601260045260246000fd5b7f4e487b7100000000000000000000000000000000000000000000000000000000600052602260045260246000fd5b7f4e487b7100000000000000000000000000000000000000000000000000000000600052604160045260246000fd5b6000601f19601f8301169050919050565b613b2f816138e5565b8114613b3a57600080fd5b50565b613b46816138f7565b8114613b5157600080fd5b50565b613b5d81613909565b8114613b6857600080fd5b50565b613b7481613915565b8114613b7f57600080fd5b50565b613b8b81613961565b8114613b9657600080fd5b5056fea2646970667358221220dea2bf0e3153c2690c58bae1514a053a68b75224659ffabc1ac8a11769d4691964736f6c63430008000033",
  "immutableReferences": {},
  "source": "// SPDX-License-Identifier: UNLICENSED .\npragma solidity ^0.8.0;\n\nimport \"@openzeppelin/contracts/token/ERC721/ERC721.sol\";\nimport \"@openzeppelin/contracts/access/Ownable.sol\";\n\ncontract VolcanoToken is ERC721('Yury Token', 'YTK'), Ownable {\n    uint256 public _tokenId;\n    \n    mapping (address => tokenData[]) public ownershipLog;\n    mapping (uint => address payable) public IdOwnerhip;\n    \n    struct tokenData {\n        uint _timestamp;\n        uint256 _id;\n        string _URI;\n        uint price;\n    }\n    \n    \n    function purchaseToken(uint _id, address payable _to, address payable _from) public payable {\n        require(msg.sender != address(0) && msg.sender != address(this));\n        require(_to == IdOwnerhip[_id], \"you are not paying to the owner\");\n        for (uint i=0; i <=  ownershipLog[IdOwnerhip[_id]].length ; i++) {\n            if (ownershipLog[IdOwnerhip[_id]][i]._id == _id) {\n                uint currentPrice = ownershipLog[IdOwnerhip[_id]][i].price;\n                require(msg.value >= currentPrice, \"insufficient payment provided\");\n                //IdOwnerhip[_id].transfer(msg.value);\n                _to.call{value: msg.value}(\"\");\n                ownershipLog[_from].push(ownershipLog[IdOwnerhip[_id]][i]);\n                delete ownershipLog[IdOwnerhip[_id]][i];\n                IdOwnerhip[_id] = _from;\n                //the problem is with last line below\n                break;\n            } \n        }\n    }\n\n\n    function mintToken(address payable to, string calldata _uri, uint _price) public {\n        _safeMint(to ,_tokenId);\n        IdOwnerhip[_tokenId] = to;\n        ownershipLog[to].push(tokenData({_timestamp : block.timestamp, _id : _tokenId, _URI : _uri, price: _price}));\n        IdOwnerhip[_tokenId] = to;\n        _tokenId += 1;\n    }\n    \n    function burnToken(uint256 tokenId) private {\n        require (ownerOf(tokenId) == msg.sender, 'You are not the owner');\n        _burn(tokenId);\n        removeId(tokenId);\n        \n    }\n    \n    // I am removing Id and deleting token in the same function.\n    function removeId(uint256 tokenId) public {\n        for (uint i=0; i < ownershipLog[msg.sender].length; i++) {\n            if (ownershipLog[msg.sender][i]._id == tokenId) {\n                ownershipLog[msg.sender][i]._id = 0;\n                delete ownershipLog[msg.sender][i];\n                break;\n            }\n        delete IdOwnerhip[tokenId];\n            \n        }\n    }\n}\n",
  "sourcePath": "/Users/yury/Desktop/webaffairs/Encode/NFT_project/contracts/VolcanoToken.sol",
  "compiler": {
    "name": "solc",
    "version": "0.8.0+commit.c7dfd78e.Emscripten.clang"
  },
  "schemaVersion": "3.4.3",
  "updatedAt": "2021-10-11T12:51:49.396Z",
  "networkType": "ethereum",
  "devdoc": {
    "kind": "dev",
    "methods": {
      "approve(address,uint256)": {
        "details": "See {IERC721-approve}."
      },
      "balanceOf(address)": {
        "details": "See {IERC721-balanceOf}."
      },
      "getApproved(uint256)": {
        "details": "See {IERC721-getApproved}."
      },
      "isApprovedForAll(address,address)": {
        "details": "See {IERC721-isApprovedForAll}."
      },
      "name()": {
        "details": "See {IERC721Metadata-name}."
      },
      "owner()": {
        "details": "Returns the address of the current owner."
      },
      "ownerOf(uint256)": {
        "details": "See {IERC721-ownerOf}."
      },
      "renounceOwnership()": {
        "details": "Leaves the contract without owner. It will not be possible to call `onlyOwner` functions anymore. Can only be called by the current owner. NOTE: Renouncing ownership will leave the contract without an owner, thereby removing any functionality that is only available to the owner."
      },
      "safeTransferFrom(address,address,uint256)": {
        "details": "See {IERC721-safeTransferFrom}."
      },
      "safeTransferFrom(address,address,uint256,bytes)": {
        "details": "See {IERC721-safeTransferFrom}."
      },
      "setApprovalForAll(address,bool)": {
        "details": "See {IERC721-setApprovalForAll}."
      },
      "supportsInterface(bytes4)": {
        "details": "See {IERC165-supportsInterface}."
      },
      "symbol()": {
        "details": "See {IERC721Metadata-symbol}."
      },
      "tokenURI(uint256)": {
        "details": "See {IERC721Metadata-tokenURI}."
      },
      "transferFrom(address,address,uint256)": {
        "details": "See {IERC721-transferFrom}."
      },
      "transferOwnership(address)": {
        "details": "Transfers ownership of the contract to a new account (`newOwner`). Can only be called by the current owner."
      }
    },
    "version": 1
  },
  "userdoc": {
    "kind": "user",
    "methods": {},
    "version": 1
  }
}